{
  "transactions": [
    {
      "hash": "0xa09f0c99a73bb95fdf89f7fbf64371dcbf79780905d7fa9d96d024f928b35049",
      "transactionType": "CREATE",
      "contractName": "KiteTreasury",
      "contractAddress": "0x289037abb2cf9e2e7394917b1f9e050887d4b352",
      "function": null,
      "arguments": [
        "0xcE19877675761f5D5CEd3A12c0f4bf98c68055B5",
        "0x99D88dF52473844b1473b9a4Dd6BA90fAAF0AB72"
      ],
      "transaction": {
        "from": "0xae0ac5583b519c34777fb5998016cf1d1d033091",
        "gas": "0xe22ac",
        "value": "0x0",
        "input": "0x60c060405234801561000f575f80fd5b50604051610be0380380610be083398101604081905261002e916100f1565b60017f9b779b17422d0df92223018b32b4d1fa46e071723d6817e2486d003becc55f00556001600160a01b038216158061006f57506001600160a01b038116155b1561008d5760405163d92e233d60e01b815260040160405180910390fd5b6001600160a01b039182166080819052911660a08190525f918252600160208190526040808420805460ff19908116841790915592845290922080549091169091179055610122565b80516001600160a01b03811681146100ec575f80fd5b919050565b5f8060408385031215610102575f80fd5b61010b836100d6565b9150610119602084016100d6565b90509250929050565b60805160a051610a9e6101425f395f60d501525f6101140152610a9e5ff3fe608060405234801561000f575f80fd5b50600436106100a6575f3560e01c80638597b7c91161006e5780638597b7c9146101c2578063a060e323146101f4578063be875e4f14610207578063e3363d4e1461023d578063f3fef3a314610246578063f7888aec14610259575f80fd5b8063029ea3ce146100aa57806308d781ec146100d05780633e413bee1461010f57806347e7ef24146101365780634bd214451461014b575b5f80fd5b6100bd6100b8366004610966565b61026c565b6040519081526020015b60405180910390f35b6100f77f000000000000000000000000000000000000000000000000000000000000000081565b6040516001600160a01b0390911681526020016100c7565b6100f77f000000000000000000000000000000000000000000000000000000000000000081565b610149610144366004610997565b6102c6565b005b6101a7610159366004610966565b6001600160a01b039182165f90815260208181526040808320939094168252918252829020825160608101845281548082526001830154938201849052600290920154930183905292909190565b604080519384526020840192909252908201526060016100c7565b6101e46101d03660046109bf565b60016020525f908152604090205460ff1681565b60405190151581526020016100c7565b610149610202366004610997565b6103f4565b6100bd610215366004610966565b6001600160a01b039182165f9081526020818152604080832093909416825291909152205490565b6100bd6101a481565b610149610254366004610997565b6104b0565b6100bd610267366004610966565b61065b565b6001600160a01b038083165f9081526020818152604080832093851683529281528282208351606081018552815481526001820154928101929092526002015492810192909252906102bd906106cf565b90505b92915050565b6102ce61073c565b805f036102ee57604051631f2a200560e01b815260040160405180910390fd5b6001600160a01b0382165f9081526001602052604090205460ff1661033657604051635f8b555b60e11b81526001600160a01b03831660048201526024015b60405180910390fd5b6103408233610757565b6001600160a01b0382165f9081526020818152604080832033845290915281208054909183918391906103749084906109ec565b90915550504260028201556103946001600160a01b0384163330856107d5565b604080518381524260208201526001600160a01b0385169133917ff5681f9d0db1b911ac18ee83d515a1cf1051853a9eae418316a2fdf7dea427c5910160405180910390a3506103f060015f80516020610a4983398151915255565b5050565b805f0361041457604051631f2a200560e01b815260040160405180910390fd5b6001600160a01b0382165f9081526001602052604090205460ff1661045757604051635f8b555b60e11b81526001600160a01b038316600482015260240161032d565b61046c6001600160a01b0383163330846107d5565b6040518181526001600160a01b0383169033907fee435c3230c93ca9d23f154cce3d1ad26a4b085bb2274317a364f311793876d69060200160405180910390a35050565b6104b861073c565b805f036104d857604051631f2a200560e01b815260040160405180910390fd5b6001600160a01b0382165f9081526001602052604090205460ff1661051b57604051635f8b555b60e11b81526001600160a01b038316600482015260240161032d565b6105258233610757565b6001600160a01b0382165f9081526020818152604080832033845290915281206001810154815491929161055991906109ec565b9050808311156105865760405163cf47918160e01b8152600481018490526024810182905260440161032d565b81545f9084116105ad5783835f015f8282546105a291906109ff565b909155506105dc9050565b82546105b990856109ff565b90505f835f018190555080836001015f8282546105d691906109ff565b90915550505b4260028401556105f66001600160a01b0386163386610811565b6040805185815260208101839052428183015290516001600160a01b0387169133917f3cae9923fd3c2f468aa25a8ef687923e37f957459557c0380fd06526c0b8cdbc9181900360600190a35050506103f060015f80516020610a4983398151915255565b6001600160a01b038083165f9081526020818152604080832093851683529281528282208351606081018552815481526001820154928101929092526002015492810192909252906106ac816106cf565b602082015182516106bd91906109ec565b6106c791906109ec565b949350505050565b80515f9015806106e157506040820151155b156106ed57505f919050565b5f8260400151426106fe91906109ff565b90506107106301e13380612710610a12565b83518290610721906101a490610a12565b61072b9190610a12565b6107359190610a29565b9392505050565b61074461084b565b60025f80516020610a4983398151915255565b6001600160a01b038083165f9081526020818152604080832093851683529281528282208351606081018552815481526001820154928101929092526002810154938201939093526107a8906106cf565b905080156107c95780826001015f8282546107c391906109ec565b90915550505b50426002909101555050565b6107e384848484600161087c565b61080b57604051635274afe760e01b81526001600160a01b038516600482015260240161032d565b50505050565b61081e83838360016108e9565b61084657604051635274afe760e01b81526001600160a01b038416600482015260240161032d565b505050565b5f80516020610a498339815191525460020361087a57604051633ee5aeb560e01b815260040160405180910390fd5b565b6040516323b872dd60e01b5f8181526001600160a01b038781166004528616602452604485905291602083606481808c5af1925060015f511483166108d85783831516156108cc573d5f823e3d81fd5b5f883b113d1516831692505b604052505f60605295945050505050565b60405163a9059cbb60e01b5f8181526001600160a01b038616600452602485905291602083604481808b5af1925060015f5114831661093f578383151615610933573d5f823e3d81fd5b5f873b113d1516831692505b60405250949350505050565b80356001600160a01b0381168114610961575f80fd5b919050565b5f8060408385031215610977575f80fd5b6109808361094b565b915061098e6020840161094b565b90509250929050565b5f80604083850312156109a8575f80fd5b6109b18361094b565b946020939093013593505050565b5f602082840312156109cf575f80fd5b6102bd8261094b565b634e487b7160e01b5f52601160045260245ffd5b808201808211156102c0576102c06109d8565b818103818111156102c0576102c06109d8565b80820281158282048414176102c0576102c06109d8565b5f82610a4357634e487b7160e01b5f52601260045260245ffd5b50049056fe9b779b17422d0df92223018b32b4d1fa46e071723d6817e2486d003becc55f00a2646970667358221220f6534cd5066dafdd57ffe3d87f75f829daebfbf089db63b99f96d89a271232fa64736f6c63430008180033000000000000000000000000ce19877675761f5d5ced3a12c0f4bf98c68055b500000000000000000000000099d88df52473844b1473b9a4dd6ba90faaf0ab72",
        "nonce": "0x33",
        "chainId": "0x14a34"
      },
      "additionalContracts": [],
      "isFixedGasLimit": false
    },
    {
      "hash": "0x80b8c8f3b6ead587a54736e3595ef2fc5829b50a23280c1735841f24134e8b80",
      "transactionType": "CALL",
      "contractName": null,
      "contractAddress": "0xce19877675761f5d5ced3a12c0f4bf98c68055b5",
      "function": "approve(address,uint256)",
      "arguments": [
        "0x289037aBB2cf9E2E7394917b1F9e050887D4b352",
        "10000000000"
      ],
      "transaction": {
        "from": "0xae0ac5583b519c34777fb5998016cf1d1d033091",
        "to": "0xce19877675761f5d5ced3a12c0f4bf98c68055b5",
        "gas": "0xfa0a",
        "value": "0x0",
        "input": "0x095ea7b3000000000000000000000000289037abb2cf9e2e7394917b1f9e050887d4b35200000000000000000000000000000000000000000000000000000002540be400",
        "nonce": "0x34",
        "chainId": "0x14a34"
      },
      "additionalContracts": [],
      "isFixedGasLimit": false
    },
    {
      "hash": "0x2bce737936e651a68a345c9ea01d9c9aff8e2853ae81a0a70145b151e929d19a",
      "transactionType": "CALL",
      "contractName": "KiteTreasury",
      "contractAddress": "0x289037abb2cf9e2e7394917b1f9e050887d4b352",
      "function": "fundYieldReserve(address,uint256)",
      "arguments": [
        "0xcE19877675761f5D5CEd3A12c0f4bf98c68055B5",
        "10000000000"
      ],
      "transaction": {
        "from": "0xae0ac5583b519c34777fb5998016cf1d1d033091",
        "to": "0x289037abb2cf9e2e7394917b1f9e050887d4b352",
        "gas": "0x1426f",
        "value": "0x0",
        "input": "0xa060e323000000000000000000000000ce19877675761f5d5ced3a12c0f4bf98c68055b500000000000000000000000000000000000000000000000000000002540be400",
        "nonce": "0x35",
        "chainId": "0x14a34"
      },
      "additionalContracts": [],
      "isFixedGasLimit": false
    },
    {
      "hash": "0x2c10315e2e3aa806fd1507368f5c213dadbf7cfe476dc74d0faa8f8e5cca02b3",
      "transactionType": "CALL",
      "contractName": null,
      "contractAddress": "0x99d88df52473844b1473b9a4dd6ba90faaf0ab72",
      "function": "approve(address,uint256)",
      "arguments": [
        "0x289037aBB2cf9E2E7394917b1F9e050887D4b352",
        "10000000000"
      ],
      "transaction": {
        "from": "0xae0ac5583b519c34777fb5998016cf1d1d033091",
        "to": "0x99d88df52473844b1473b9a4dd6ba90faaf0ab72",
        "gas": "0xfa0a",
        "value": "0x0",
        "input": "0x095ea7b3000000000000000000000000289037abb2cf9e2e7394917b1f9e050887d4b35200000000000000000000000000000000000000000000000000000002540be400",
        "nonce": "0x36",
        "chainId": "0x14a34"
      },
      "additionalContracts": [],
      "isFixedGasLimit": false
    },
    {
      "hash": "0xa71a927540662d3f7a3035ff645f223e29e3eafc0ea9f4b01160fdd8daeb3878",
      "transactionType": "CALL",
      "contractName": "KiteTreasury",
      "contractAddress": "0x289037abb2cf9e2e7394917b1f9e050887d4b352",
      "function": "fundYieldReserve(address,uint256)",
      "arguments": [
        "0x99D88dF52473844b1473b9a4Dd6BA90fAAF0AB72",
        "10000000000"
      ],
      "transaction": {
        "from": "0xae0ac5583b519c34777fb5998016cf1d1d033091",
        "to": "0x289037abb2cf9e2e7394917b1f9e050887d4b352",
        "gas": "0x1426f",
        "value": "0x0",
        "input": "0xa060e32300000000000000000000000099d88df52473844b1473b9a4dd6ba90faaf0ab7200000000000000000000000000000000000000000000000000000002540be400",
        "nonce": "0x37",
        "chainId": "0x14a34"
      },
      "additionalContracts": [],
      "isFixedGasLimit": false
    }
  ],
  "receipts": [
    {
      "status": "0x1",
      "cumulativeGasUsed": "0x20ffdc",
      "logs": [],
      "logsBloom": "0x00000000000000000000000000000000000000000000000000000000000000000000000000000000000000000000000000000000000000000000000000000000000000000000000000000000000000000000000000000000000000000000000000000000000000000000000000000000000000000000000000000000000000000000000000000000000000000000000000000000000000000000000000000000000000000000000000000000000000000000000000000000000000000000000000000000000000000000000000000000000000000000000000000000000000000000000000000000000000000000000000000000000000000000000000000000",
      "type": "0x2",
      "transactionHash": "0x80b8c8f3b6ead587a54736e3595ef2fc5829b50a23280c1735841f24134e8b80",
      "transactionIndex": "0x5",
      "blockHash": "0x0000000000000000000000000000000000000000000000000000000000000000",
      "blockNumber": "0x27c9bc9",
      "gasUsed": "0xadf98",
      "effectiveGasPrice": "0x5b8d80",
      "blobGasUsed": "0xbfdbc",
      "from": "0xae0ac5583b519c34777fb5998016cf1d1d033091",
      "to": null,
      "contractAddress": "0x289037abb2cf9e2e7394917b1f9e050887d4b352",
      "daFootprintGasScalar": "0x1be",
      "l1BaseFeeScalar": "0x44d",
      "l1BlobBaseFee": "0x91437",
      "l1BlobBaseFeeScalar": "0xa118b",
      "l1Fee": "0x11f27c4d",
      "l1GasPrice": "0x8f40fc",
      "l1GasUsed": "0x6e29"
    },
    {
      "status": "0x1",
      "cumulativeGasUsed": "0x21b4e3",
      "logs": [
        {
          "address": "0xce19877675761f5d5ced3a12c0f4bf98c68055b5",
          "topics": [
            "0x8c5be1e5ebec7d5bd14f71427d1e84f3dd0314c0f7b2291e5b200ac8c7c3b925",
            "0x000000000000000000000000ae0ac5583b519c34777fb5998016cf1d1d033091",
            "0x000000000000000000000000289037abb2cf9e2e7394917b1f9e050887d4b352"
          ],
          "data": "0x00000000000000000000000000000000000000000000000000000002540be400",
          "blockHash": "0x0000000000000000000000000000000000000000000000000000000000000000",
          "blockNumber": "0x27c9bc9",
          "blockTimestamp": "0x6a0c9672",
          "transactionHash": "0x2bce737936e651a68a345c9ea01d9c9aff8e2853ae81a0a70145b151e929d19a",
          "transactionIndex": "0x6",
          "logIndex": "0x4d",
          "removed": false
        }
      ],
      "logsBloom": "0x00000000000000000000000000000000000000000000000000000004000000000000000000000000000000000000000000000000000000000000000000200000000000000000000000000000000000000000000000000000000000800000000004000000000000000000000000000000080000000000000000000000000000000000000000200040000000000000000000002000000020000000000000000000020000000000000000000000000000000000000000000000000000000000000000000000000000000000000000000800000000000000000000000000000000000010000000000000000000000000000000000000000000000000000000000000",
      "type": "0x2",
      "transactionHash": "0x2bce737936e651a68a345c9ea01d9c9aff8e2853ae81a0a70145b151e929d19a",
      "transactionIndex": "0x6",
      "blockHash": "0x0000000000000000000000000000000000000000000000000000000000000000",
      "blockNumber": "0x27c9bc9",
      "gasUsed": "0xb507",
      "effectiveGasPrice": "0x5b8d80",
      "blobGasUsed": "0xae38",
      "from": "0xae0ac5583b519c34777fb5998016cf1d1d033091",
      "to": "0xce19877675761f5d5ced3a12c0f4bf98c68055b5",
      "contractAddress": null,
      "daFootprintGasScalar": "0x1be",
      "l1BaseFeeScalar": "0x44d",
      "l1BlobBaseFee": "0x91437",
      "l1BlobBaseFeeScalar": "0xa118b",
      "l1Fee": "0x11f27c4d",
      "l1GasPrice": "0x8f40fc",
      "l1GasUsed": "0x640"
    },
    {
      "status": "0x1",
      "cumulativeGasUsed": "0x229e53",
      "logs": [
        {
          "address": "0xce19877675761f5d5ced3a12c0f4bf98c68055b5",
          "topics": [
            "0xddf252ad1be2c89b69c2b068fc378daa952ba7f163c4a11628f55a4df523b3ef",
            "0x000000000000000000000000ae0ac5583b519c34777fb5998016cf1d1d033091",
            "0x000000000000000000000000289037abb2cf9e2e7394917b1f9e050887d4b352"
          ],
          "data": "0x00000000000000000000000000000000000000000000000000000002540be400",
          "blockHash": "0x0000000000000000000000000000000000000000000000000000000000000000",
          "blockNumber": "0x27c9bc9",
          "blockTimestamp": "0x6a0c9672",
          "transactionHash": "0xa09f0c99a73bb95fdf89f7fbf64371dcbf79780905d7fa9d96d024f928b35049",
          "transactionIndex": "0x7",
          "logIndex": "0x4e",
          "removed": false
        },
        {
          "address": "0x289037abb2cf9e2e7394917b1f9e050887d4b352",
          "topics": [
            "0xee435c3230c93ca9d23f154cce3d1ad26a4b085bb2274317a364f311793876d6",
            "0x000000000000000000000000ae0ac5583b519c34777fb5998016cf1d1d033091",
            "0x000000000000000000000000ce19877675761f5d5ced3a12c0f4bf98c68055b5"
          ],
          "data": "0x00000000000000000000000000000000000000000000000000000002540be400",
          "blockHash": "0x0000000000000000000000000000000000000000000000000000000000000000",
          "blockNumber": "0x27c9bc9",
          "blockTimestamp": "0x6a0c9672",
          "transactionHash": "0xa09f0c99a73bb95fdf89f7fbf64371dcbf79780905d7fa9d96d024f928b35049",
          "transactionIndex": "0x7",
          "logIndex": "0x4f",
          "removed": false
        }
      ],
      "logsBloom": "0x00000000000000000000080000000000000000000000000000000204000000000000000008000000000080000000000000000000000000000000000000000000000000000000000000000008000000000000000000000000000000800000000004000000000000000000000000000000080000000000000000000010000000000000000000200040000000000000000000002000000020000000000000020000000000000000000000000000000000000000000040000000000000000000000000000002000000000000008000000800000000000000000000000000000000000000000000000000000000800000000000000000000000002000000000000000",
      "type": "0x2",
      "transactionHash": "0xa09f0c99a73bb95fdf89f7fbf64371dcbf79780905d7fa9d96d024f928b35049",
      "transactionIndex": "0x7",
      "blockHash": "0x0000000000000000000000000000000000000000000000000000000000000000",
      "blockNumber": "0x27c9bc9",
      "gasUsed": "0xe970",
      "effectiveGasPrice": "0x5b8d80",
      "blobGasUsed": "0xae38",
      "from": "0xae0ac5583b519c34777fb5998016cf1d1d033091",
      "to": "0x289037abb2cf9e2e7394917b1f9e050887d4b352",
      "contractAddress": null,
      "daFootprintGasScalar": "0x1be",
      "l1BaseFeeScalar": "0x44d",
      "l1BlobBaseFee": "0x91437",
      "l1BlobBaseFeeScalar": "0xa118b",
      "l1Fee": "0x11f27c4d",
      "l1GasPrice": "0x8f40fc",
      "l1GasUsed": "0x640"
    },
    {
      "status": "0x1",
      "cumulativeGasUsed": "0x23535a",
      "logs": [
        {
          "address": "0x99d88df52473844b1473b9a4dd6ba90faaf0ab72",
          "topics": [
            "0x8c5be1e5ebec7d5bd14f71427d1e84f3dd0314c0f7b2291e5b200ac8c7c3b925",
            "0x000000000000000000000000ae0ac5583b519c34777fb5998016cf1d1d033091",
            "0x000000000000000000000000289037abb2cf9e2e7394917b1f9e050887d4b352"
          ],
          "data": "0x00000000000000000000000000000000000000000000000000000002540be400",
          "blockHash": "0x0000000000000000000000000000000000000000000000000000000000000000",
          "blockNumber": "0x27c9bc9",
          "blockTimestamp": "0x6a0c9672",
          "transactionHash": "0xa71a927540662d3f7a3035ff645f223e29e3eafc0ea9f4b01160fdd8daeb3878",
          "transactionIndex": "0x8",
          "logIndex": "0x50",
          "removed": false
        }
      ],
      "logsBloom": "0x00000000000800000000000000000000000000000000000000000004000000000000000000000000000000000000000000000000000000000000000000200000000000000000000000000000000000000000000000000000000000800000000000000000000000000800000000000000080000000000000000000000000000000000000000200000000000000000000000002000000000000000000100000000020000000000000000000000000000000000000000000000000000000000000000000000000000000000000000000800000000000000000000000000000000000010000000000000000000000000000000000000000000000000000000000000",
      "type": "0x2",
      "transactionHash": "0xa71a927540662d3f7a3035ff645f223e29e3eafc0ea9f4b01160fdd8daeb3878",
      "transactionIndex": "0x8",
      "blockHash": "0x0000000000000000000000000000000000000000000000000000000000000000",
      "blockNumber": "0x27c9bc9",
      "gasUsed": "0xb507",
      "effectiveGasPrice": "0x5b8d80",
      "blobGasUsed": "0xae38",
      "from": "0xae0ac5583b519c34777fb5998016cf1d1d033091",
      "to": "0x99d88df52473844b1473b9a4dd6ba90faaf0ab72",
      "contractAddress": null,
      "daFootprintGasScalar": "0x1be",
      "l1BaseFeeScalar": "0x44d",
      "l1BlobBaseFee": "0x91437",
      "l1BlobBaseFeeScalar": "0xa118b",
      "l1Fee": "0x11f27c4d",
      "l1GasPrice": "0x8f40fc",
      "l1GasUsed": "0x640"
    },
    {
      "status": "0x1",
      "cumulativeGasUsed": "0x243cca",
      "logs": [
        {
          "address": "0x99d88df52473844b1473b9a4dd6ba90faaf0ab72",
          "topics": [
            "0xddf252ad1be2c89b69c2b068fc378daa952ba7f163c4a11628f55a4df523b3ef",
            "0x000000000000000000000000ae0ac5583b519c34777fb5998016cf1d1d033091",
            "0x000000000000000000000000289037abb2cf9e2e7394917b1f9e050887d4b352"
          ],
          "data": "0x00000000000000000000000000000000000000000000000000000002540be400",
          "blockHash": "0x0000000000000000000000000000000000000000000000000000000000000000",
          "blockNumber": "0x27c9bc9",
          "blockTimestamp": "0x6a0c9672",
          "transactionHash": "0x2c10315e2e3aa806fd1507368f5c213dadbf7cfe476dc74d0faa8f8e5cca02b3",
          "transactionIndex": "0x9",
          "logIndex": "0x51",
          "removed": false
        },
        {
          "address": "0x289037abb2cf9e2e7394917b1f9e050887d4b352",
          "topics": [
            "0xee435c3230c93ca9d23f154cce3d1ad26a4b085bb2274317a364f311793876d6",
            "0x000000000000000000000000ae0ac5583b519c34777fb5998016cf1d1d033091",
            "0x00000000000000000000000099d88df52473844b1473b9a4dd6ba90faaf0ab72"
          ],
          "data": "0x00000000000000000000000000000000000000000000000000000002540be400",
          "blockHash": "0x0000000000000000000000000000000000000000000000000000000000000000",
          "blockNumber": "0x27c9bc9",
          "blockTimestamp": "0x6a0c9672",
          "transactionHash": "0x2c10315e2e3aa806fd1507368f5c213dadbf7cfe476dc74d0faa8f8e5cca02b3",
          "transactionIndex": "0x9",
          "logIndex": "0x52",
          "removed": false
        }
      ],
      "logsBloom": "0x00000000000800000000080000000000000000000000000000000204000000000000000000000000020080000000000000000000000000000000000000000000000000000000000000000008000000000000000000000000000000800000000000000000000000000800000000000000080000000000000000000010000000000000000000200000000000000000040000002000000000000000000100020000000000000008000000000000000000000000000000000000000000000000000000000002000000000000008000000800000000000000000000000000000000000000000000000000000000000000000000000000000000002000000000000000",
      "type": "0x2",
      "transactionHash": "0x2c10315e2e3aa806fd1507368f5c213dadbf7cfe476dc74d0faa8f8e5cca02b3",
      "transactionIndex": "0x9",
      "blockHash": "0x0000000000000000000000000000000000000000000000000000000000000000",
      "blockNumber": "0x27c9bc9",
      "gasUsed": "0xe970",
      "effectiveGasPrice": "0x5b8d80",
      "blobGasUsed": "0xae38",
      "from": "0xae0ac5583b519c34777fb5998016cf1d1d033091",
      "to": "0x289037abb2cf9e2e7394917b1f9e050887d4b352",
      "contractAddress": null,
      "daFootprintGasScalar": "0x1be",
      "l1BaseFeeScalar": "0x44d",
      "l1BlobBaseFee": "0x91437",
      "l1BlobBaseFeeScalar": "0xa118b",
      "l1Fee": "0x11f27c4d",
      "l1GasPrice": "0x8f40fc",
      "l1GasUsed": "0x640"
    }
  ],
  "libraries": [],
  "pending": [],
  "returns": {
    "treasury": {
      "internal_type": "contract KiteTreasury",
      "value": "0x289037aBB2cf9E2E7394917b1F9e050887D4b352"
    }
  },
  "timestamp": 1779209840374,
  "chain": 84532,
  "commit": "d0ab2f5"
}